:100000000C9462000C948A000C948A000C948A0070
:100010000C948A000C948A000C948A000C948A0038
:100020000C948A000C948A000C948A000C9431057C
:100030000C948A000C948A000C948A000C948A0018
:100040000C94E7040C948A000C948A000C948A00A7
:100050000C948A000C948A000C948A000C948A00F8
:100060000C94ED050C948A00000000002400270089
:100070002A0000000000250028002B0000000000DE
:1000800023002600290004040404040404040202DA
:100090000202020203030303030301020408102007
:1000A0004080010204081020010204081020000012
:1000B0000008000201000003040700000000000027
:1000C00000000C0711241FBECFEFD8E0DEBFCDBF6C
:1000D00011E0A0E0B1E0ECE8F9E102C005900D927A
:1000E000AC38B107D9F722E0ACE8B1E001C01D920D
:1000F000A43AB207E1F710E0C2E6D0E004C02197CD
:10010000FE010E94BE0CC136D107C9F70E945207FA
:100110000C94C40C0C940000833081F028F48130DE
:1001200099F08230A9F008958730A9F08830C9F09D
:100130008430B1F4809180008F7D03C08091800075
:100140008F7780938000089584B58F7784BD08955C
:1001500084B58F7DFBCF8091B0008F778093B00006
:1001600008958091B0008F7DF9CFCF93DF93282F32
:1001700030E0F901E255FF4F8491F901E656FF4F57
:10018000D491F901EA57FF4FC491CC23A1F081111A
:100190000E948C00EC2FF0E0EE0FFF1FE458FF4FA1
:1001A000A591B491EC91ED2381E090E009F480E019
:1001B000DF91CF91089580E090E0FACF1F93CF9325
:1001C000DF93282F30E0F901E255FF4F8491F901C8
:1001D000E656FF4FD491F901EA57FF4FC491CC2363
:1001E000A9F0162F81110E948C00EC2FF0E0EE0F89
:1001F000FF1FEE58FF4FA591B4918FB7F894EC9183
:10020000111108C0D095DE23DC938FBFDF91CF9111
:100210001F910895DE2BF8CFCF93DF9390E0FC0180
:10022000E656FF4F24918A579F4FFC018491882303
:10023000C9F090E0880F991FFC01E859FF4FA59184
:10024000B491FC01EE58FF4FC591D49161110DC0DE
:100250009FB7F8948C91209582238C9388812823D2
:1002600028839FBFDF91CF910895623051F49FB7EB
:10027000F8943C91822F809583238C93E8812E2BD8
:10028000EFCF8FB7F894EC912E2B2C938FBFEACF42
:100290008E50806480937C0080917A00806480938B
:1002A0007A0080917A0086FDFCCF80917800909151
:1002B000790008953FB7F8948091600290916102AF
:1002C000A0916202B091630226B5A89B05C02F3FA2
:1002D00019F00196A11DB11D3FBFBA2FA92F982F6C
:1002E0008827BC01CD01620F711D811D911D42E067
:1002F000660F771F881F991F4A95D1F708958F922F
:100300009F92AF92BF92CF92DF92EF92FF924B01FA
:100310005C010E945A016B017C010E945A016C1918
:100320007D098E099F09683E734081059105A8F3F8
:1003300021E0821A9108A108B10888EEC80E83E076
:10034000D81EE11CF11C81149104A104B10429F709
:10035000FF90EF90DF90CF90BF90AF909F908F90E5
:10036000089508950895AF92BF92CF92DF92EF92D1
:10037000FF920F931F93CF93DF936C017B018B014F
:10038000040F151FEB015E01AE18BF08C017D1079F
:1003900059F06991D601ED91FC910190F081E02D29
:1003A000C6010995892B79F7C501DF91CF911F917E
:1003B0000F91FF90EF90DF90CF90BF90AF90089596
:1003C00008952091CD01260F3327331F21323105A7
:1003D000ECF420911602FC0190E080E0243069F0FA
:1003E00082E00895A091CD012191AC0143555E4F6B
:1003F000A40FB52FB11D2C930196861798F3809109
:10040000CD01680F6093CD0180E0089581E00895EB
:100410001092160281E0809315021092F00161E0C3
:1004200082E10E94DE0061E083E10E94DE00E9EBF0
:10043000F0E080818E7F808380818D7F808388E45F
:100440008093B80085E48093BC000895CF93DF9338
:1004500091E09093AC018823B9F0C091B800D0919D
:10046000BA008091BC008A7B8093BC0060E082E18E
:100470000E94DE0060E083E10E94DE000E9408022C
:10048000D093BA00C093B800DF91CF91089508953A
:10049000E091460280914502E81730F4F0E0E4571D
:1004A000FE4F808190E008958FEF9FEF0895909127
:1004B0004602809145022FEF3FEF981748F4E92F4D
:1004C000F0E0E457FE4F208130E09F5F90934602BA
:1004D000C90108958091450290914602891B990BAC
:1004E0000895CF92DF92EF92FF920F931F93CF93D5
:1004F000DF937C01CB018A0120911C02222389F029
:10050000EB016B01C40ED51ECC15DD0569F06991B8
:10051000D701ED91FC910190F081E02DC701099583
:10052000F3CF642F0E94E101C801DF91CF911F91A9
:100530000F91FF90EF90DF90CF900895CF93DF93CE
:100540001F92CDB7DEB7698320911C022223F9F0F8
:1005500020914302203258F021E030E0FC01338347
:10056000228390E080E00F90DF91CF9108958091F9
:100570004402E82FF0E0E35EFD4F998190838F5FA6
:10058000809344028093430281E090E0ECCF61E0ED
:10059000CE0101960E94E101F7CFCF92DF92EF9258
:1005A000FF920F931F93CF93DF93FC01C48121E04F
:1005B00020931C02C0933D02109244021092430209
:1005C0008385682B84E692E00E949E02D0914302CC
:1005D000D13208F092C00E945A016B017C018091D7
:1005E0001602811165C082E08093160281E080933B
:1005F00015028FEF8093140210921302D09312020F
:10060000ADE1B2E0E2EFF1E080E0D81385C01092F6
:10061000F1018091F101CC0FC82BC093F1018091C1
:10062000F001813009F07CC01092F0010E945A0163
:100630006B017C018091F1018093BB0080911802D5
:1006400090911902A0911A02B0911B02892B8A2B5A
:100650008B2B99F00E945A010091180210911902F7
:1006600020911A0230911B026C197D098E099F0995
:100670000617170728073907E0F18091BC0083FDB2
:10068000D9CF85EC8093BC000E945A016B017C019C
:1006900080911602823009F445C0809114028F3F88
:1006A00061F180911402803241F18091140225C0E1
:1006B0008091180290911902A0911A02B0911B0228
:1006C000892B8A2B8B2B09F48ACF0E945A01009127
:1006D00018021091190220911A0230911B026C1914
:1006E0007D098E099F09061717072807390708F0A3
:1006F00076CF809117020E94260210924402109237
:10070000430210921C02DF91CF911F910F91FF9035
:10071000EF90DF90CF9008959D9191938F5F75CF6B
:1007200085EEB0CF8091180290911902A0911A0223
:10073000B0911B02892B8A2B8B2B09F4A9CF0E9425
:100740005A01009118021091190220911A02309159
:100750001B026C197D098E099F09061717072807C8
:10076000390708F095CFC5CF90E080E008958F92CB
:100770009F92AF92BF920F931F93CF93DF93CDB70A
:10078000DEB7A1970FB6F894DEBF0FBECDBF19A29A
:10079000423008F44AE08E010F5D1F4F842E912CE9
:1007A000B12CA12CA50194010E947A0CE62FB9016D
:1007B000CA01EA3044F5E05DD801EE938D01232BA8
:1007C000242B252B79F790E080E0109769F0FD014C
:1007D00001900020E9F73197AF014A1B5B0BBD0187
:1007E00088E992E00E94B301A1960FB6F894DEBFAB
:1007F0000FBECDBFDF91CF911F910F91BF90AF90F2
:100800009F908F900895E95CD7CFFC010190002064
:10081000E9F73197AF01481B590BBC0188E992E019
:100820000C94B3010F931F93CF938C01C62F0E949A
:10083000CD026C2F6460C8010E94CD026C2F6B7FCB
:10084000C8010E94CD0283EC90E00197F1F7CF91AF
:100850001F910F9108950F931F93CF93DF938C01F6
:10086000D62FC42F607F642B0E94120480E1D89F92
:10087000B00111246C2BC801DF91CF911F910F9112
:100880000C941204CF93DF93CDB7DEB728970FB641
:10089000F894DEBF0FBECDBF98E0E2E1F1E0DE01EB
:1008A000119601900D929A95E1F79091A0029617FA
:1008B00008F46FEF262F30E0220F331F41E050E0A5
:1008C0004C0F5D1F240F351FF9016081680F6068B0
:1008D00040E088E992E028960FB6F894DEBF0FBE9C
:1008E000CDBFDF91CF910C942B0440E061E088E90B
:1008F00092E00E942B048BE39FE10197F1F70895AA
:1009000041E00E942B0481E090E00895CF92DF92B5
:10091000EF92FF926C01990FEE08FF08F7FE16C0E8
:1009200041E06DE288E992E00E942B046627772778
:10093000CB016C197D098E099F094AE00E94B7031B
:100940000196FF90EF90DF90CF9008954AE0C701A5
:10095000B601FF90EF90DF90CF900C94B70385ED38
:100960008093BC008091180290911902A0911A0204
:10097000B0911B020796A11DB11D23E0B695A79566
:10098000979587952A95D1F72091BC0024FD03C047
:100990001092160208954091180250911902609128
:1009A0001A0270911B02452B462B472B69F30097C7
:1009B000A105B10541F02AE22A95F1F700C001979F
:1009C000A109B109E1CF809117020C9426021F9270
:1009D0000F920FB60F9211242F933F938F939F93F3
:1009E000AF93BF9380915C0290915D02A0915E02F3
:1009F000B0915F0230915B0223E0230F2D3758F551
:100A00000196A11DB11D20935B0280935C0290931F
:100A10005D02A0935E02B0935F02809160029091AC
:100A20006102A0916202B09163020196A11DB11D05
:100A30008093600290936102A0936202B09363027C
:100A4000BF91AF919F918F913F912F910F900FBECA
:100A50000F901F90189526E8230F0296A11DB11D37
:100A6000D2CF1F920F920FB60F9211242F933F9364
:100A70004F935F936F937F938F939F93AF93BF93A6
:100A8000CF93DF93EF93FF9380913E02C091940246
:100A9000D0E087FF24C010928500109284008091DE
:100AA0003E028F5F80933E0280913E02082E000C32
:100AB000990B8C179D0724F480913E028C30C4F171
:100AC0008091840090918500049680349C4908F4BC
:100AD0007AC08091840090918500049676C08091C0
:100AE0003E02082E000C990B8C179D07C4F6E0916E
:100AF0003E028E2FEE0F990BFC01EE0FFF1FE80F49
:100B0000F91FE059FD4F808186FFC9CFE0913E0279
:100B10008E2FEE0F990BFC01EE0FFF1FE80FF91F50
:100B2000E059FD4F808160E08F730E94DE00B7CFF7
:100B30002091840030918500E0913E028E2FEE0FCF
:100B4000990BFC01EE0FFF1FE80FF91FE059FD4F55
:100B500081819281820F931F9093890080938800F6
:100B6000E0913E028E2FEE0F990BFC01EE0FFF1F5E
:100B7000E80FF91FE059FD4F808186FF11C0E09119
:100B80003E028E2FEE0F990BFC01EE0FFF1FE80FB8
:100B9000F91FE059FD4F808161E08F730E94DE00F4
:100BA000FF91EF91DF91CF91BF91AF919F918F9185
:100BB0007F916F915F914F913F912F910F900FBE59
:100BC0000F901F90189580E49CE990938900809382
:100BD00088008FEF80933E02E3CF1F920F920FB6F3
:100BE0000F9211242F933F934F935F936F937F93B3
:100BF0008F939F93AF93BF93EF93FF938091B9002F
:100C0000887F803609F44AC0F0F5883209F4A7C01D
:100C100018F5803109F49BC0B8F4882309F4F9C0B1
:100C2000883009F494C0FF91EF91BF91AF919F91EB
:100C30008F917F916F915F914F913F912F910F9085
:100C40000FBE0F901F901895883109F488C080322C
:100C500051F78093140214C0803409F49DC040F40D
:100C60008033B9F38833F9F68093140285ECB0C071
:100C7000803509F485C0883509F496C0883499F622
:100C80000E94AF04D0CF883909F48CC038F588377A
:100C900029F050F4883611F0803729F683E08093EC
:100CA00016021092EF0157C0883809F47BC08039D2
:100CB00019F0803809F0B7CF8091EF01803208F049
:100CC00071C0E091EF0181E08E0F8093EF01809180
:100CD000BB00F0E0E153FE4F80833DC0803B39F024
:100CE000E0F4803A09F479C0883A09F09CCF84E0B6
:100CF000809316021092CE011092CD01E091410234
:100D0000F091420209958091CD0181110FC081E0DF
:100D10008093CD011092AD0109C0803C09F4A6CFAB
:100D2000883C09F4A3CF883B09F07DCFE091CE0148
:100D300081E08E0F8093CE01F0E0E355FE4F80817D
:100D40008093BB009091CE018091CD0129C080910C
:100D5000F1018093BB0085EC8093BC0064CF90913F
:100D6000130280911202981758F5E091130281E066
:100D70008E0F80931302F0E0EE50FE4F8081E9CF9A
:100D8000E091130281E08E0F809313028091BB00EB
:100D9000F0E0EE50FE4F808390911302809112029A
:100DA0009817C8F285E8D8CFE091130281E08E0F42
:100DB000809313028091BB00F0E0EE50FE4F8083E1
:100DC0008091150281115CCF81E08093F00184EA6B
:100DD0008093BC001092160226CF85EC8093BC0055
:100DE000109216028091EF01803230F4E091EF0111
:100DF000F0E0E153FE4F10826091EF0170E0E0916E
:100E00003F02F09140028FEC91E009951092EF01C2
:100E10000ACF1092140234CF109267021092660229
:100E200088EE93E0A0E0B0E08093680290936902BE
:100E3000A0936A02B0936B028EE191E090936502F9
:100E40008093640210929B0210929A0280E391E0D8
:100E5000909399028093980287E280939C0280E1AC
:100E60008093A10282E08093A2021092A30280915B
:100E700094028C3098F491E0980F909394028093B0
:100E8000950290E0FC01EE0FFF1FE80FF91FE059FB
:100E9000FD4F88EB9BE09283818308958FEF8093D1
:100EA00095020895CF93DF9300D000D0CDB7DEB781
:100EB000789484B5826084BD84B5816084BD85B535
:100EC000826085BD85B5816085BD80916E00816041
:100ED00080936E00109281008091810082608093E7
:100EE00081008091810081608093810080918000E9
:100EF0008160809380008091B10084608093B10014
:100F00008091B00081608093B00080917A0084600D
:100F100080937A0080917A00826080937A00809139
:100F20007A00816080937A0080917A008068809353
:100F30007A001092C100109246021092450210925F
:100F40004402109243020E94080281EB91E09093C8
:100F500042028093410282EB91E0909340028093A1
:100F60003F0210929D028091A202823018F098E018
:100F700090939D028093A00262E370E080E090E095
:100F80000E947F016091A30288E992E00E94CD0255
:100F900068EE73E080E090E00E947F0160E388E902
:100FA00092E00E9412048BE496E40197F1F760E36B
:100FB00088E992E00E9412042BE436E4C90101970B
:100FC000F1F760E388E992E00E94120483E592E081
:100FD0000197F1F760E288E992E00E9412046091C3
:100FE0009D02606240E088E992E00E942B0484E068
:100FF00080939E0240E06CE088E992E00E942B041E
:101000000E94750482E080939F0240E066E088E9D8
:1010100092E00E942B0440E062E088E992E00E94A6
:101020002B048BE39FE10197F1F788E08093A30203
:1010300060E088E992E00E94CD0260E08AE00E94D0
:101040000C01809195028C3008F051C061E08BE07A
:101050000E940C0180919502282F30E0F901EE0FDB
:10106000FF1FE20FF31FE059FD4F9081907C9B60C2
:10107000908310929602109297022CE0622F0E94A9
:10108000AB0C829FB001112430E020E0AB01420F95
:10109000531FFA01EE0FFF1FE40FF51FE059FD4F3C
:1010A000908196FD16C02F5F3F4F2C30310571F7B0
:1010B00081110FC01092800082E080938100109215
:1010C000850010928400B19A80916F0082608093B5
:1010D0006F00E09195028E2F90E0FC01EE0FFF1F54
:1010E000E80FF91FE059FD4F80818064808361E043
:1010F00088E00E940C0160E085E00E940C0160E045
:1011000087E00E940C0160E089E00E940C0161E030
:101110008EE00E940C0161E08CE00E940C0161E015
:101120008DE00E940C0160E086E00E940C0161E00D
:1011300084E00E940C0160E080E00E940C0160E00D
:1011400081E00E940C0160E08FE00E940C0161E0F0
:1011500080E10E940C0162E080E00E940C0162E0EC
:1011600081E00E940C0160E083E00E940C0161E0DC
:1011700082E00E940C0160E081E00E94420488E36A
:1011800091E00E94050498E5292E92E0392E24EB87
:10119000422E512C612C712C01E010E080E00E9465
:1011A000B5007C0181E00E94B5009A83898380911B
:1011B000590290915A02892B09F075C260E080E0D3
:1011C0000E94420480915702909158020E94860426
:1011D00061E080E00E94420487E491E00E940504FF
:1011E000E114F104E9F480915502909156020197BF
:1011F000B9F4809157029091580201968A30910576
:101200000CF054C2909358028093570260E080E043
:101210000E94420480915702909158020E948604D5
:1012200029813A81232B09F0B4C080915302909117
:101230005402019709F0ADC0809151029091520281
:1012400001969093520280935102019779F4C090D5
:101250005702D0905802D0925002C0924F0261E0E3
:101260008BE00E944204C6010E94860480915102D4
:1012700090915202029779F4C0905702D090580290
:10128000D0924E02C0924D0261E08CE00E94420476
:10129000C6010E94860480915102909152020397E8
:1012A00079F4C0905702D0905802D0924C02C0926C
:1012B0004B0261E08DE00E944204C6010E94860458
:1012C0008091510290915202049709F044C0C0905D
:1012D0005702D0905802D0924A02C092490261E06F
:1012E0008EE00E944204C6010E948604C0904F0214
:1012F000D090500231E0C316D10499F480914D0290
:1013000090914E02029769F480914B0290914C02A9
:10131000039739F48091490290914A02049709F4A5
:10132000CAC10E94750460E080E00E94420483E527
:1013300091E00E94050410925A021092590268EE40
:1013400073E080E090E00E947F010E94750410929B
:1013500052021092510280915102909152020597CF
:1013600061F410925202109251020E94750462E3DD
:1013700070E080E090E00E947F011092580210928D
:10138000570260E080E00E94420490E080E00E940A
:101390008604F0925602E092550289819A819093D8
:1013A00054028093530283E00E94B500019709F034
:1013B00097C181E0809311012091590230915A0226
:1013C0003A8329832130310561F480910F01909196
:1013D00010018130910509F49EC160E0029709F483
:1013E0009BC18AE00E94B500019709F099C181E094
:1013F00080930E0189819A81019761F480910C019B
:1014000090910D018130910509F4A5C160E002972A
:1014100009F4A2C185E00E94B5005C0187E00E944A
:10142000B5006C0189E00E94B5007C01AA94AB284C
:1014300009F096C181E080930B0129813A81213026
:10144000310561F48091090190910A018130910583
:1014500009F4A1C160E0029709F49EC1CA94CD28A5
:1014600009F09EC181E08093080189819A810197EA
:1014700061F480910601909107018130910509F492
:10148000AAC160E0029709F4A7C1EA94EF2809F025
:10149000A7C181E08093050129813A81213031057E
:1014A00061F480910301909104018130910509F468
:1014B000B2C160E0029709F4AFC186E00E94B500B6
:1014C000019709F0ADC181E08093020189819A8181
:1014D000019761F4809100019091010181309105A3
:1014E00009F4B9C160E0029709F4B6C18FE00E9427
:1014F0004801909348028093470229813A81213024
:10150000310561F560E0843F91400CF0A9C181E0B4
:101510000E94420489E691E00E94050460E089E0AF
:101520000E94420480914702909148020E948604E2
:1015300061E082E00E94420483E791E00E9405049A
:1015400068EC70E080E090E00E947F0160E089E05C
:101550000E9442048CE791E00E94050480914702BA
:101560009091480261E0843F91400CF060E080E19E
:101570000E94DE008091590290915A02019709F071
:101580008AC081E10E9448012AE530E0DC010E9426
:10159000B70C20E032E040E050E00E94480C298384
:1015A0003A834B835C8389819A81803232E093074E
:1015B0000CF03DC080919602A8E8CA2ED12CC81A22
:1015C000D10887FDD394CC0CDD1CCC0CDD1C0D2C7C
:1015D000000CEE08FF08809197024101881A9108DB
:1015E00087FD9394880C991C880C991C092C000C7D
:1015F000AA08BB08A50194012C193D094E095F09F1
:10160000A981BA81A53BB10514F0A4EBB0E0B7FF06
:1016100002C0B0E0A0E00E94720CA30192010E94FF
:10162000480CDA01C9018C0D9D1DAE1DBF1D4091F6
:1016300095024C3080F52091960268E870E0621BBC
:10164000710927FD7395660F771F660F771F861741
:1016500097077CF020919702B101621B710927FD69
:101660007395660F771F660F771F861797070CF421
:10167000BC01CB010297880F991F6FB7F89450E017
:101680009A01220F331F240F351FF901E059FD4F36
:10169000928381836FBF80E090E0892B09F47ECD37
:1016A0000E9400007BCD0E9475049ACD10925802D2
:1016B00010925702ABCD0E94750460E080E00E945A
:1016C000420483E691E00E94050468EE73E080E046
:1016D00090E00E947F01D0925A02C092590237CE08
:1016E00080911101882309F467CE80910F019091B8
:1016F00010018230910539F41093100100930F010D
:101700001092110159CE01969093100180930F0110
:101710000197B1F7F1CF61E082E00E94DE0061CE77
:1017200080910E01882309F465CE80910C0190917F
:101730000D018230910539F410930D0100930C01D5
:1017400010920E0157CE019690930D0180930C01DB
:101750000197B1F7F1CF61E088E00E94DE005ACE38
:1017600080910B01882309F468CE80910901909142
:101770000A018230910539F410930A01009309019E
:1017800010920B015ACE019690930A0180930901A1
:101790000197B1F7F1CF61E08EE00E94DE005ECEEE
:1017A00080910801882309F460CE80910601909110
:1017B00007018230910539F4109307010093060167
:1017C0001092080152CE0196909307018093060172
:1017D0000197B1F7F1CF61E08DE00E94DE0055CEB8
:1017E00080910501882309F457CE809103019091DF
:1017F00004018230910539F4109304010093030130
:101800001092050149CE0196909304018093030143
:101810000197B1F7F1CF61E08CE00E94DE004DCE80
:1018200080910201882309F451CE809100019091AA
:1018300001018230910539F41093010100930001F8
:101840001092020143CE0196909301018093000112
:101850000197B1F7F1CF61E084E00E94DE0046CE4F
:1018600081E00E94420489E691E00E94050460E064
:1018700089E00E94420480914702909148020E94B0
:10188000860461E082E00E94420481E891E056CE45
:10189000052E97FB1EF400940E945F0C57FD07D0A5
:1018A0000E947A0C07FC03D04EF40C945F0C509508
:1018B0004095309521953F4F4F4F5F4F089590953C
:1018C0008095709561957F4F8F4F9F4F08950E942F
:1018D0009C0CA59F900DB49F900DA49F800D911D11
:1018E00011240895B7FF0C94670C0E94670C821BAB
:1018F000930B0895A1E21A2EAA1BBB1BFD010DC07C
:10190000AA1FBB1FEE1FFF1FA217B307E407F507AF
:1019100020F0A21BB30BE40BF50B661F771F881F8B
:10192000991F1A9469F760957095809590959B0121
:10193000AC01BD01CF010895A29FB001B39FC001CA
:10194000A39F700D811D1124911DB29F700D811DEB
:101950001124911D0895991B79E004C0991F9617D1
:1019600008F0961B881F7A95C9F7809508950E9404
:101970009C0CB7FF0895821B930B0895EE0FFF1F79
:0C1980000590F491E02D0994F894FFCF3D
:10198C00020001020001020001020001020001023A
:10199C0000010000400014005400000000009E02F2
:1019AC007102B40347026A025702480200000000A9
:1019BC008004B301B403E0014E686170206D617462
:1019CC00206B6861753A005061737320576F7264B5
:1019DC003A200057726F6E672050617373576F72A5
:1019EC00642100506173732100476961207472692E
:1019FC003A200054726F6920746F690020202020F7
:0C1A0C000054726F692073616E67000067
:00000001FF
